:020000002E28A8
:0800080089008316081483121D
:10001000080808008C0085150A308D00E630810044
:10002000811B13281028811F16281328E630810011
:1000300003148C0C03188511031C851564008D03B3
:10004000031D102808000420840004080420003840
:10005000031900340A20840A252808008316F43086
:100060008500C4308100CA308600831285010230C9
:100070002320013023200330232005100B1D4928A5
:100080000B118D03031D4928023085060030042022
:100090008D00051D3D280514043023200130232048
:0600A000033023203D287F
:00000001FF
